:10098D0020496E76616C696420002020496E707577
:10099D00742020002046414E206973204F4646208A
:1009AD00002046414E206973204F4E4E20002042BC
:1009BD00554C42206973204F464620002042554C2D
:1009CD0042206973206F6E2000206C65642069736E
:1009DD00204F46462000206C6564206973206F6EA1
:1009ED00200020414C4C206973204F4E20002041A7
:0B09FD004C4C206973206F66662000E0
:10080000759850758920758DFDD28ED2B2120A5E10
:100810003098FD8599088508993099FDC299C2984C
:100820007F01120A727F80120A727BFF7A09798D2A
:10083000120A087FC0120A727BFF7A097997120A9E
:1008400008E508643170227F01120A727F80120A63
:10085000727BFF7A0979A1120A087FC0120A72D24C
:10086000A2120A48120A96D2B2E508643270257FB5
:1008700001120A72C2A27F80120A727BFF7A097982
:10088000AE120A087FC0120A72120A48120A9612A1
:100890000A46D2B2E508643370227F01120A727FE1
:1008A00080120A727BFF7A0979BB120A087FC01294
:1008B0000A72D2A3120A48120A96D2B2E508643428
:1008C0007024C2A37F01120A727F80120A727BFF1A
:1008D0007A0979C9120A087FC0120A72C2A3120AE1
:1008E00048120A46D2B2E508B4351F7F01120A72D7
:1008F0007F80120A727BFF7A0979D6120A087FC0BC
:10090000120A72D2A4120A48D2B2E50864367022E2
:100910007F01120A727F80120A727BFF7A0979E3E3
:10092000120A087FC0120A72C2A4120A48120A46AA
:10093000D2B2E508643070267F01120A727F8012FD
:100940000A727BFF7A0979EF120A087FC0120A72D5
:10095000C2A4C2A3C2A2120A48120A46D2B2E50831
:10096000643960030208107F01120A727F80120A44
:10097000727BFF7A0979FB120A087FC0120A72D2D1
:0D098000A4D2A3D2A2120A48D2B2020810DB
:100A5E007F38120A727F0C120A727F01120A727F9D
:040A6E0080020A7286
:060A4600C2B27FE87EFD54
:100A4C00E4FDFCC3ED9FEC9E50070DBD00010C8036
:010A5C00F2A7
:010A5D002276
:100A7200C2A08F90D2A17F057E00120A4CC2A102B1
:020A82000A4C1C
:100A8400D2A08F90D2A17F057E00120A4CC2A1028F
:020A94000A4C0A
:100A08008B6F8A708971AB6FAA70A971120A2D60F9
:100A1800130571E5717002057014F9120A2DFF12A1
:050A28000A8480E222B7
:0B0A9600E4FF7E647809E4F608DEFC53
:010AA1002232
:03000000020AA24F
:0C0AA200787FE4F6D8FD75817102080031
:100A2D00BB010689828A83E0225002E722BBFE02C7
:090A3D00E32289828A83E49322FA
:00000001FF
